{
  "_format": "hh-sol-artifact-1",
  "contractName": "Exchange",
  "sourceName": "contracts/Exchange.sol",
  "abi": [
    {
      "inputs": [
        {
          "internalType": "address",
          "name": "_tokenB",
          "type": "address"
        },
        {
          "internalType": "uint256",
          "name": "_initialRate",
          "type": "uint256"
        }
      ],
      "stateMutability": "nonpayable",
      "type": "constructor"
    },
    {
      "inputs": [
        {
          "internalType": "address",
          "name": "owner",
          "type": "address"
        }
      ],
      "name": "OwnableInvalidOwner",
      "type": "error"
    },
    {
      "inputs": [
        {
          "internalType": "address",
          "name": "account",
          "type": "address"
        }
      ],
      "name": "OwnableUnauthorizedAccount",
      "type": "error"
    },
    {
      "inputs": [],
      "name": "ReentrancyGuardReentrantCall",
      "type": "error"
    },
    {
      "anonymous": false,
      "inputs": [
        {
          "indexed": false,
          "internalType": "bool",
          "name": "active",
          "type": "bool"
        }
      ],
      "name": "ExchangeToggled",
      "type": "event"
    },
    {
      "anonymous": false,
      "inputs": [
        {
          "indexed": false,
          "internalType": "uint256",
          "name": "oldFee",
          "type": "uint256"
        },
        {
          "indexed": false,
          "internalType": "uint256",
          "name": "newFee",
          "type": "uint256"
        }
      ],
      "name": "FeeUpdated",
      "type": "event"
    },
    {
      "anonymous": false,
      "inputs": [
        {
          "indexed": true,
          "internalType": "address",
          "name": "provider",
          "type": "address"
        },
        {
          "indexed": false,
          "internalType": "uint256",
          "name": "amountA",
          "type": "uint256"
        },
        {
          "indexed": false,
          "internalType": "uint256",
          "name": "amountB",
          "type": "uint256"
        }
      ],
      "name": "LiquidityAdded",
      "type": "event"
    },
    {
      "anonymous": false,
      "inputs": [
        {
          "indexed": true,
          "internalType": "address",
          "name": "provider",
          "type": "address"
        },
        {
          "indexed": false,
          "internalType": "uint256",
          "name": "amountA",
          "type": "uint256"
        },
        {
          "indexed": false,
          "internalType": "uint256",
          "name": "amountB",
          "type": "uint256"
        }
      ],
      "name": "LiquidityRemoved",
      "type": "event"
    },
    {
      "anonymous": false,
      "inputs": [
        {
          "indexed": true,
          "internalType": "address",
          "name": "previousOwner",
          "type": "address"
        },
        {
          "indexed": true,
          "internalType": "address",
          "name": "newOwner",
          "type": "address"
        }
      ],
      "name": "OwnershipTransferred",
      "type": "event"
    },
    {
      "anonymous": false,
      "inputs": [
        {
          "indexed": false,
          "internalType": "uint256",
          "name": "oldRate",
          "type": "uint256"
        },
        {
          "indexed": false,
          "internalType": "uint256",
          "name": "newRate",
          "type": "uint256"
        },
        {
          "indexed": false,
          "internalType": "address",
          "name": "updatedBy",
          "type": "address"
        }
      ],
      "name": "RateUpdated",
      "type": "event"
    },
    {
      "anonymous": false,
      "inputs": [
        {
          "indexed": true,
          "internalType": "address",
          "name": "user",
          "type": "address"
        },
        {
          "indexed": false,
          "internalType": "uint256",
          "name": "amountIn",
          "type": "uint256"
        },
        {
          "indexed": false,
          "internalType": "uint256",
          "name": "amountOut",
          "type": "uint256"
        },
        {
          "indexed": false,
          "internalType": "bool",
          "name": "aToB",
          "type": "bool"
        }
      ],
      "name": "Swap",
      "type": "event"
    },
    {
      "inputs": [],
      "name": "MAX_FEE",
      "outputs": [
        {
          "internalType": "uint256",
          "name": "",
          "type": "uint256"
        }
      ],
      "stateMutability": "view",
      "type": "function"
    },
    {
      "inputs": [
        {
          "internalType": "uint256",
          "name": "tokenAmount",
          "type": "uint256"
        }
      ],
      "name": "addLiquidity",
      "outputs": [],
      "stateMutability": "payable",
      "type": "function"
    },
    {
      "inputs": [],
      "name": "exchangeActive",
      "outputs": [
        {
          "internalType": "bool",
          "name": "",
          "type": "bool"
        }
      ],
      "stateMutability": "view",
      "type": "function"
    },
    {
      "inputs": [],
      "name": "exchangeRate",
      "outputs": [
        {
          "internalType": "uint256",
          "name": "",
          "type": "uint256"
        }
      ],
      "stateMutability": "view",
      "type": "function"
    },
    {
      "inputs": [],
      "name": "fee",
      "outputs": [
        {
          "internalType": "uint256",
          "name": "",
          "type": "uint256"
        }
      ],
      "stateMutability": "view",
      "type": "function"
    },
    {
      "inputs": [
        {
          "internalType": "uint256",
          "name": "amountIn",
          "type": "uint256"
        },
        {
          "internalType": "bool",
          "name": "isETHToToken",
          "type": "bool"
        }
      ],
      "name": "getAmountOut",
      "outputs": [
        {
          "internalType": "uint256",
          "name": "amountOut",
          "type": "uint256"
        }
      ],
      "stateMutability": "view",
      "type": "function"
    },
    {
      "inputs": [],
      "name": "getExchangeInfo",
      "outputs": [
        {
          "internalType": "uint256",
          "name": "_reserveA",
          "type": "uint256"
        },
        {
          "internalType": "uint256",
          "name": "_reserveB",
          "type": "uint256"
        },
        {
          "internalType": "uint256",
          "name": "_rate",
          "type": "uint256"
        },
        {
          "internalType": "uint256",
          "name": "_lastUpdate",
          "type": "uint256"
        }
      ],
      "stateMutability": "view",
      "type": "function"
    },
    {
      "inputs": [
        {
          "internalType": "address",
          "name": "_tokenA",
          "type": "address"
        },
        {
          "internalType": "address",
          "name": "_tokenB",
          "type": "address"
        }
      ],
      "name": "getRate",
      "outputs": [
        {
          "internalType": "uint256",
          "name": "rate",
          "type": "uint256"
        }
      ],
      "stateMutability": "view",
      "type": "function"
    },
    {
      "inputs": [],
      "name": "getTokenPair",
      "outputs": [
        {
          "internalType": "address",
          "name": "_tokenA",
          "type": "address"
        },
        {
          "internalType": "address",
          "name": "_tokenB",
          "type": "address"
        }
      ],
      "stateMutability": "view",
      "type": "function"
    },
    {
      "inputs": [],
      "name": "lastRateUpdate",
      "outputs": [
        {
          "internalType": "uint256",
          "name": "",
          "type": "uint256"
        }
      ],
      "stateMutability": "view",
      "type": "function"
    },
    {
      "inputs": [],
      "name": "owner",
      "outputs": [
        {
          "internalType": "address",
          "name": "",
          "type": "address"
        }
      ],
      "stateMutability": "view",
      "type": "function"
    },
    {
      "inputs": [
        {
          "internalType": "uint256",
          "name": "amountA",
          "type": "uint256"
        },
        {
          "internalType": "uint256",
          "name": "amountB",
          "type": "uint256"
        }
      ],
      "name": "removeLiquidity",
      "outputs": [],
      "stateMutability": "nonpayable",
      "type": "function"
    },
    {
      "inputs": [],
      "name": "renounceOwnership",
      "outputs": [],
      "stateMutability": "nonpayable",
      "type": "function"
    },
    {
      "inputs": [],
      "name": "reserveA",
      "outputs": [
        {
          "internalType": "uint256",
          "name": "",
          "type": "uint256"
        }
      ],
      "stateMutability": "view",
      "type": "function"
    },
    {
      "inputs": [],
      "name": "reserveB",
      "outputs": [
        {
          "internalType": "uint256",
          "name": "",
          "type": "uint256"
        }
      ],
      "stateMutability": "view",
      "type": "function"
    },
    {
      "inputs": [
        {
          "internalType": "bool",
          "name": "active",
          "type": "bool"
        }
      ],
      "name": "setExchangeActive",
      "outputs": [],
      "stateMutability": "nonpayable",
      "type": "function"
    },
    {
      "inputs": [
        {
          "internalType": "uint256",
          "name": "newFee",
          "type": "uint256"
        }
      ],
      "name": "setFee",
      "outputs": [],
      "stateMutability": "nonpayable",
      "type": "function"
    },
    {
      "inputs": [
        {
          "internalType": "uint256",
          "name": "newRate",
          "type": "uint256"
        }
      ],
      "name": "setRate",
      "outputs": [],
      "stateMutability": "nonpayable",
      "type": "function"
    },
    {
      "inputs": [
        {
          "internalType": "address",
          "name": "_tokenA",
          "type": "address"
        },
        {
          "internalType": "address",
          "name": "_tokenB",
          "type": "address"
        }
      ],
      "name": "supportsExchange",
      "outputs": [
        {
          "internalType": "bool",
          "name": "supported",
          "type": "bool"
        }
      ],
      "stateMutability": "view",
      "type": "function"
    },
    {
      "inputs": [
        {
          "internalType": "uint256",
          "name": "minTokensOut",
          "type": "uint256"
        }
      ],
      "name": "swapETHForTokens",
      "outputs": [],
      "stateMutability": "payable",
      "type": "function"
    },
    {
      "inputs": [
        {
          "internalType": "uint256",
          "name": "tokenAmount",
          "type": "uint256"
        },
        {
          "internalType": "uint256",
          "name": "minETHOut",
          "type": "uint256"
        }
      ],
      "name": "swapTokensForETH",
      "outputs": [],
      "stateMutability": "nonpayable",
      "type": "function"
    },
    {
      "inputs": [],
      "name": "tokenA",
      "outputs": [
        {
          "internalType": "address",
          "name": "",
          "type": "address"
        }
      ],
      "stateMutability": "view",
      "type": "function"
    },
    {
      "inputs": [],
      "name": "tokenB",
      "outputs": [
        {
          "internalType": "address",
          "name": "",
          "type": "address"
        }
      ],
      "stateMutability": "view",
      "type": "function"
    },
    {
      "inputs": [
        {
          "internalType": "address",
          "name": "newOwner",
          "type": "address"
        }
      ],
      "name": "transferOwnership",
      "outputs": [],
      "stateMutability": "nonpayable",
      "type": "function"
    },
    {
      "stateMutability": "payable",
      "type": "receive"
    }
  ],
  "bytecode": "0x6080604052606460095534801561001557600080fd5b50604051612a4b380380612a4b833981810160405281019061003791906103bf565b33600073ffffffffffffffffffffffffffffffffffffffff168173ffffffffffffffffffffffffffffffffffffffff16036100aa5760006040517f1e4fbdf70000000000000000000000000000000000000000000000000000000081526004016100a1919061040e565b60405180910390fd5b6100b98161026260201b60201c565b5060018081905550600073ffffffffffffffffffffffffffffffffffffffff168273ffffffffffffffffffffffffffffffffffffffff1603610130576040517f08c379a000000000000000000000000000000000000000000000000000000000815260040161012790610486565b60405180910390fd5b60008111610173576040517f08c379a000000000000000000000000000000000000000000000000000000000815260040161016a90610518565b60405180910390fd5b6000600260006101000a81548173ffffffffffffffffffffffffffffffffffffffff021916908373ffffffffffffffffffffffffffffffffffffffff16021790555081600360006101000a81548173ffffffffffffffffffffffffffffffffffffffff021916908373ffffffffffffffffffffffffffffffffffffffff160217905550806004819055506001600760006101000a81548160ff021916908315150217905550426008819055507f7a285533a6415d496859eec7fa426d85c813c8ed12602b764e6f47e97dfa42a2600082336040516102539392919061058c565b60405180910390a150506105c3565b60008060009054906101000a900473ffffffffffffffffffffffffffffffffffffffff169050816000806101000a81548173ffffffffffffffffffffffffffffffffffffffff021916908373ffffffffffffffffffffffffffffffffffffffff1602179055508173ffffffffffffffffffffffffffffffffffffffff168173ffffffffffffffffffffffffffffffffffffffff167f8be0079c531659141344cd1fd0a4f28419497f9722a3daafe3b4186f6b6457e060405160405180910390a35050565b600080fd5b600073ffffffffffffffffffffffffffffffffffffffff82169050919050565b60006103568261032b565b9050919050565b6103668161034b565b811461037157600080fd5b50565b6000815190506103838161035d565b92915050565b6000819050919050565b61039c81610389565b81146103a757600080fd5b50565b6000815190506103b981610393565b92915050565b600080604083850312156103d6576103d5610326565b5b60006103e485828601610374565b92505060206103f5858286016103aa565b9150509250929050565b6104088161034b565b82525050565b600060208201905061042360008301846103ff565b92915050565b600082825260208201905092915050565b7f546f6b656e20616464726573732063616e6e6f74206265207a65726f00000000600082015250565b6000610470601c83610429565b915061047b8261043a565b602082019050919050565b6000602082019050818103600083015261049f81610463565b9050919050565b7f496e697469616c2072617465206d75737420626520677265617465722074686160008201527f6e207a65726f0000000000000000000000000000000000000000000000000000602082015250565b6000610502602683610429565b915061050d826104a6565b604082019050919050565b60006020820190508181036000830152610531816104f5565b9050919050565b6000819050919050565b6000819050919050565b600061056761056261055d84610538565b610542565b610389565b9050919050565b6105778161054c565b82525050565b61058681610389565b82525050565b60006060820190506105a1600083018661056e565b6105ae602083018561057d565b6105bb60408301846103ff565b949350505050565b612479806105d26000396000f3fe60806040526004361061014f5760003560e01c8063715018a6116100b6578063a22280a61161006f578063a22280a614610460578063bc063e1a14610489578063cbbc94cf146104b4578063dc5fa6c5146104e0578063ddca3f431461050b578063f2fde38b1461053657610156565b8063715018a6146103735780637f8ecd5b1461038a5780638bc5b3c5146103b35780638da5cb5b146103e157806392b8bc621461040c5780639d7de6b31461043757610156565b8063379b87ea11610108578063379b87ea146102705780633ba0b9a9146102ad5780634d82680e146102d857806351c6590a146103035780635f64b55b1461031f57806369fe0e2d1461034a57610156565b80630fc63d101461015b57806311106ee2146101865780631953864b146101c357806319e36f3b146102005780632eab28411461022b57806334fcf4371461024757610156565b3661015657005b600080fd5b34801561016757600080fd5b5061017061055f565b60405161017d9190611915565b60405180910390f35b34801561019257600080fd5b506101ad60048036038101906101a891906119a3565b610585565b6040516101ba91906119f2565b60405180910390f35b3480156101cf57600080fd5b506101ea60048036038101906101e59190611a39565b610683565b6040516101f79190611a88565b60405180910390f35b34801561020c57600080fd5b506102156107a5565b60405161022291906119f2565b60405180910390f35b61024560048036038101906102409190611aa3565b6107ab565b005b34801561025357600080fd5b5061026e60048036038101906102699190611aa3565b610a93565b005b34801561027c57600080fd5b5061029760048036038101906102929190611a39565b610b32565b6040516102a491906119f2565b60405180910390f35b3480156102b957600080fd5b506102c2610c96565b6040516102cf91906119f2565b60405180910390f35b3480156102e457600080fd5b506102ed610c9c565b6040516102fa91906119f2565b60405180910390f35b61031d60048036038101906103189190611aa3565b610ca2565b005b34801561032b57600080fd5b50610334610e5f565b6040516103419190611915565b60405180910390f35b34801561035657600080fd5b50610371600480360381019061036c9190611aa3565b610e85565b005b34801561037f57600080fd5b50610388610f1d565b005b34801561039657600080fd5b506103b160048036038101906103ac9190611ad0565b610f31565b005b3480156103bf57600080fd5b506103c8610f8d565b6040516103d89493929190611afd565b60405180910390f35b3480156103ed57600080fd5b506103f6610fad565b6040516104039190611915565b60405180910390f35b34801561041857600080fd5b50610421610fd6565b60405161042e9190611a88565b60405180910390f35b34801561044357600080fd5b5061045e60048036038101906104599190611b42565b610fe9565b005b34801561046c57600080fd5b5061048760048036038101906104829190611b42565b6112b1565b005b34801561049557600080fd5b5061049e611649565b6040516104ab91906119f2565b60405180910390f35b3480156104c057600080fd5b506104c961164f565b6040516104d7929190611b82565b60405180910390f35b3480156104ec57600080fd5b506104f56116a0565b60405161050291906119f2565b60405180910390f35b34801561051757600080fd5b506105206116a6565b60405161052d91906119f2565b60405180910390f35b34801561054257600080fd5b5061055d60048036038101906105589190611bab565b6116ac565b005b600260009054906101000a900473ffffffffffffffffffffffffffffffffffffffff1681565b60008083116105c9576040517f08c379a00000000000000000000000000000000000000000000000000000000081526004016105c090611c5b565b60405180910390fd5b8115610628576000600454670de0b6b3a7640000856105e89190611caa565b6105f29190611d1b565b90506000612710600954836106079190611caa565b6106119190611d1b565b9050808261061f9190611d4c565b9250505061067d565b6000670de0b6b3a7640000600454856106419190611caa565b61064b9190611d1b565b90506000612710600954836106609190611caa565b61066a9190611d1b565b905080826106789190611d4c565b925050505b92915050565b60008073ffffffffffffffffffffffffffffffffffffffff168373ffffffffffffffffffffffffffffffffffffffff1614801561070d5750600360009054906101000a900473ffffffffffffffffffffffffffffffffffffffff1673ffffffffffffffffffffffffffffffffffffffff168273ffffffffffffffffffffffffffffffffffffffff16145b8061079d5750600360009054906101000a900473ffffffffffffffffffffffffffffffffffffffff1673ffffffffffffffffffffffffffffffffffffffff168373ffffffffffffffffffffffffffffffffffffffff1614801561079c5750600073ffffffffffffffffffffffffffffffffffffffff168273ffffffffffffffffffffffffffffffffffffffff16145b5b905092915050565b60065481565b6107b3611732565b600760009054906101000a900460ff16610802576040517f08c379a00000000000000000000000000000000000000000000000000000000081526004016107f990611dcc565b60405180910390fd5b60003411610845576040517f08c379a000000000000000000000000000000000000000000000000000000000815260040161083c90611e38565b60405180910390fd5b6000600454670de0b6b3a76400003461085e9190611caa565b6108689190611d1b565b905060006127106009548361087d9190611caa565b6108879190611d1b565b9050600081836108979190611d4c565b9050838110156108dc576040517f08c379a00000000000000000000000000000000000000000000000000000000081526004016108d390611ea4565b60405180910390fd5b600654811115610921576040517f08c379a000000000000000000000000000000000000000000000000000000000815260040161091890611f10565b60405180910390fd5b34600560008282546109339190611f30565b92505081905550806006600082825461094c9190611d4c565b92505081905550600360009054906101000a900473ffffffffffffffffffffffffffffffffffffffff1673ffffffffffffffffffffffffffffffffffffffff1663a9059cbb33836040518363ffffffff1660e01b81526004016109b0929190611f64565b6020604051808303816000875af11580156109cf573d6000803e3d6000fd5b505050506040513d601f19601f820116820180604052508101906109f39190611fa2565b610a32576040517f08c379a0000000000000000000000000000000000000000000000000000000008152600401610a299061201b565b60405180910390fd5b3373ffffffffffffffffffffffffffffffffffffffff167fcc65e4d9060ece2ecf63011ac580550b04c8daeba63fac4dfe8669353cd8885934836001604051610a7d9392919061203b565b60405180910390a2505050610a90611778565b50565b610a9b611781565b60008111610ade576040517f08c379a0000000000000000000000000000000000000000000000000000000008152600401610ad5906120be565b60405180910390fd5b6000600454905081600481905550426008819055507f7a285533a6415d496859eec7fa426d85c813c8ed12602b764e6f47e97dfa42a2818333604051610b26939291906120de565b60405180910390a15050565b60008073ffffffffffffffffffffffffffffffffffffffff168373ffffffffffffffffffffffffffffffffffffffff16148015610bbc5750600360009054906101000a900473ffffffffffffffffffffffffffffffffffffffff1673ffffffffffffffffffffffffffffffffffffffff168273ffffffffffffffffffffffffffffffffffffffff16145b80610c4c5750600360009054906101000a900473ffffffffffffffffffffffffffffffffffffffff1673ffffffffffffffffffffffffffffffffffffffff168373ffffffffffffffffffffffffffffffffffffffff16148015610c4b5750600073ffffffffffffffffffffffffffffffffffffffff168273ffffffffffffffffffffffffffffffffffffffff16145b5b610c8b576040517f08c379a0000000000000000000000000000000000000000000000000000000008152600401610c8290612161565b60405180910390fd5b600454905092915050565b60045481565b60085481565b610caa611781565b600034118015610cba5750600081115b610cf9576040517f08c379a0000000000000000000000000000000000000000000000000000000008152600401610cf0906121cd565b60405180910390fd5b600360009054906101000a900473ffffffffffffffffffffffffffffffffffffffff1673ffffffffffffffffffffffffffffffffffffffff166323b872dd3330846040518463ffffffff1660e01b8152600401610d58939291906121ed565b6020604051808303816000875af1158015610d77573d6000803e3d6000fd5b505050506040513d601f19601f82011682018060405250810190610d9b9190611fa2565b610dda576040517f08c379a0000000000000000000000000000000000000000000000000000000008152600401610dd19061201b565b60405180910390fd5b3460056000828254610dec9190611f30565b925050819055508060066000828254610e059190611f30565b925050819055503373ffffffffffffffffffffffffffffffffffffffff167fac1d76749e5447b7b16f5ab61447e1bd502f3bb4807af3b28e620d1700a6ee453483604051610e54929190612224565b60405180910390a250565b600360009054906101000a900473ffffffffffffffffffffffffffffffffffffffff1681565b610e8d611781565b6101f4811115610ed2576040517f08c379a0000000000000000000000000000000000000000000000000000000008152600401610ec990612299565b60405180910390fd5b60006009549050816009819055507f528d9479e9f9889a87a3c30c7f7ba537e5e59c4c85a37733b16e57c62df613028183604051610f11929190612224565b60405180910390a15050565b610f25611781565b610f2f6000611808565b565b610f39611781565b80600760006101000a81548160ff0219169083151502179055507f167e1ed4833523de9654fe667143553eb0494ef7426bac6c9d27a02c38b49c3a81604051610f829190611a88565b60405180910390a150565b600080600080600554600654600454600854935093509350935090919293565b60008060009054906101000a900473ffffffffffffffffffffffffffffffffffffffff16905090565b600760009054906101000a900460ff1681565b610ff1611781565b610ff9611732565b60055482111561103e576040517f08c379a000000000000000000000000000000000000000000000000000000000815260040161103590612305565b60405180910390fd5b600654811115611083576040517f08c379a000000000000000000000000000000000000000000000000000000000815260040161107a90611f10565b60405180910390fd5b600082111561115357816005600082825461109e9190611d4c565b9250508190555060003373ffffffffffffffffffffffffffffffffffffffff16836040516110cb90612356565b60006040518083038185875af1925050503d8060008114611108576040519150601f19603f3d011682016040523d82523d6000602084013e61110d565b606091505b5050905080611151576040517f08c379a0000000000000000000000000000000000000000000000000000000008152600401611148906123b7565b60405180910390fd5b505b600081111561125557806006600082825461116e9190611d4c565b92505081905550600360009054906101000a900473ffffffffffffffffffffffffffffffffffffffff1673ffffffffffffffffffffffffffffffffffffffff1663a9059cbb33836040518363ffffffff1660e01b81526004016111d2929190611f64565b6020604051808303816000875af11580156111f1573d6000803e3d6000fd5b505050506040513d601f19601f820116820180604052508101906112159190611fa2565b611254576040517f08c379a000000000000000000000000000000000000000000000000000000000815260040161124b9061201b565b60405180910390fd5b5b3373ffffffffffffffffffffffffffffffffffffffff167f96cd817c6329656790ef8fba7675405193677d39619571282f5e21f3a98cd059838360405161129d929190612224565b60405180910390a26112ad611778565b5050565b6112b9611732565b600760009054906101000a900460ff16611308576040517f08c379a00000000000000000000000000000000000000000000000000000000081526004016112ff90611dcc565b60405180910390fd5b6000821161134b576040517f08c379a000000000000000000000000000000000000000000000000000000000815260040161134290612423565b60405180910390fd5b6000670de0b6b3a7640000600454846113649190611caa565b61136e9190611d1b565b90506000612710600954836113839190611caa565b61138d9190611d1b565b90506000818361139d9190611d4c565b9050838110156113e2576040517f08c379a00000000000000000000000000000000000000000000000000000000081526004016113d990611ea4565b60405180910390fd5b600554811115611427576040517f08c379a000000000000000000000000000000000000000000000000000000000815260040161141e90612305565b60405180910390fd5b600360009054906101000a900473ffffffffffffffffffffffffffffffffffffffff1673ffffffffffffffffffffffffffffffffffffffff166323b872dd3330886040518463ffffffff1660e01b8152600401611486939291906121ed565b6020604051808303816000875af11580156114a5573d6000803e3d6000fd5b505050506040513d601f19601f820116820180604052508101906114c99190611fa2565b611508576040517f08c379a00000000000000000000000000000000000000000000000000000000081526004016114ff9061201b565b60405180910390fd5b846006600082825461151a9190611f30565b9250508190555080600560008282546115339190611d4c565b9250508190555060003373ffffffffffffffffffffffffffffffffffffffff168260405161156090612356565b60006040518083038185875af1925050503d806000811461159d576040519150601f19603f3d011682016040523d82523d6000602084013e6115a2565b606091505b50509050806115e6576040517f08c379a00000000000000000000000000000000000000000000000000000000081526004016115dd906123b7565b60405180910390fd5b3373ffffffffffffffffffffffffffffffffffffffff167fcc65e4d9060ece2ecf63011ac580550b04c8daeba63fac4dfe8669353cd88859878460006040516116319392919061203b565b60405180910390a250505050611645611778565b5050565b6101f481565b600080600260009054906101000a900473ffffffffffffffffffffffffffffffffffffffff16600360009054906101000a900473ffffffffffffffffffffffffffffffffffffffff16915091509091565b60055481565b60095481565b6116b4611781565b600073ffffffffffffffffffffffffffffffffffffffff168173ffffffffffffffffffffffffffffffffffffffff16036117265760006040517f1e4fbdf700000000000000000000000000000000000000000000000000000000815260040161171d9190611915565b60405180910390fd5b61172f81611808565b50565b60026001540361176e576040517f3ee5aeb500000000000000000000000000000000000000000000000000000000815260040160405180910390fd5b6002600181905550565b60018081905550565b6117896118cc565b73ffffffffffffffffffffffffffffffffffffffff166117a7610fad565b73ffffffffffffffffffffffffffffffffffffffff1614611806576117ca6118cc565b6040517f118cdaa70000000000000000000000000000000000000000000000000000000081526004016117fd9190611915565b60405180910390fd5b565b60008060009054906101000a900473ffffffffffffffffffffffffffffffffffffffff169050816000806101000a81548173ffffffffffffffffffffffffffffffffffffffff021916908373ffffffffffffffffffffffffffffffffffffffff1602179055508173ffffffffffffffffffffffffffffffffffffffff168173ffffffffffffffffffffffffffffffffffffffff167f8be0079c531659141344cd1fd0a4f28419497f9722a3daafe3b4186f6b6457e060405160405180910390a35050565b600033905090565b600073ffffffffffffffffffffffffffffffffffffffff82169050919050565b60006118ff826118d4565b9050919050565b61190f816118f4565b82525050565b600060208201905061192a6000830184611906565b92915050565b600080fd5b6000819050919050565b61194881611935565b811461195357600080fd5b50565b6000813590506119658161193f565b92915050565b60008115159050919050565b6119808161196b565b811461198b57600080fd5b50565b60008135905061199d81611977565b92915050565b600080604083850312156119ba576119b9611930565b5b60006119c885828601611956565b92505060206119d98582860161198e565b9150509250929050565b6119ec81611935565b82525050565b6000602082019050611a0760008301846119e3565b92915050565b611a16816118f4565b8114611a2157600080fd5b50565b600081359050611a3381611a0d565b92915050565b60008060408385031215611a5057611a4f611930565b5b6000611a5e85828601611a24565b9250506020611a6f85828601611a24565b9150509250929050565b611a828161196b565b82525050565b6000602082019050611a9d6000830184611a79565b92915050565b600060208284031215611ab957611ab8611930565b5b6000611ac784828501611956565b91505092915050565b600060208284031215611ae657611ae5611930565b5b6000611af48482850161198e565b91505092915050565b6000608082019050611b1260008301876119e3565b611b1f60208301866119e3565b611b2c60408301856119e3565b611b3960608301846119e3565b95945050505050565b60008060408385031215611b5957611b58611930565b5b6000611b6785828601611956565b9250506020611b7885828601611956565b9150509250929050565b6000604082019050611b976000830185611906565b611ba46020830184611906565b9392505050565b600060208284031215611bc157611bc0611930565b5b6000611bcf84828501611a24565b91505092915050565b600082825260208201905092915050565b7f496e70757420616d6f756e74206d75737420626520677265617465722074686160008201527f6e207a65726f0000000000000000000000000000000000000000000000000000602082015250565b6000611c45602683611bd8565b9150611c5082611be9565b604082019050919050565b60006020820190508181036000830152611c7481611c38565b9050919050565b7f4e487b7100000000000000000000000000000000000000000000000000000000600052601160045260246000fd5b6000611cb582611935565b9150611cc083611935565b9250828202611cce81611935565b91508282048414831517611ce557611ce4611c7b565b5b5092915050565b7f4e487b7100000000000000000000000000000000000000000000000000000000600052601260045260246000fd5b6000611d2682611935565b9150611d3183611935565b925082611d4157611d40611cec565b5b828204905092915050565b6000611d5782611935565b9150611d6283611935565b9250828203905081811115611d7a57611d79611c7b565b5b92915050565b7f45786368616e6765206973206e6f742061637469766500000000000000000000600082015250565b6000611db6601683611bd8565b9150611dc182611d80565b602082019050919050565b60006020820190508181036000830152611de581611da9565b9050919050565b7f4d7573742073656e642045544800000000000000000000000000000000000000600082015250565b6000611e22600d83611bd8565b9150611e2d82611dec565b602082019050919050565b60006020820190508181036000830152611e5181611e15565b9050919050565b7f496e73756666696369656e74206f757470757420616d6f756e74000000000000600082015250565b6000611e8e601a83611bd8565b9150611e9982611e58565b602082019050919050565b60006020820190508181036000830152611ebd81611e81565b9050919050565b7f496e73756666696369656e7420746f6b656e2072657365727665730000000000600082015250565b6000611efa601b83611bd8565b9150611f0582611ec4565b602082019050919050565b60006020820190508181036000830152611f2981611eed565b9050919050565b6000611f3b82611935565b9150611f4683611935565b9250828201905080821115611f5e57611f5d611c7b565b5b92915050565b6000604082019050611f796000830185611906565b611f8660208301846119e3565b9392505050565b600081519050611f9c81611977565b92915050565b600060208284031215611fb857611fb7611930565b5b6000611fc684828501611f8d565b91505092915050565b7f546f6b656e207472616e73666572206661696c65640000000000000000000000600082015250565b6000612005601583611bd8565b915061201082611fcf565b602082019050919050565b6000602082019050818103600083015261203481611ff8565b9050919050565b600060608201905061205060008301866119e3565b61205d60208301856119e3565b61206a6040830184611a79565b949350505050565b7f52617465206d7573742062652067726561746572207468616e207a65726f0000600082015250565b60006120a8601e83611bd8565b91506120b382612072565b602082019050919050565b600060208201905081810360008301526120d78161209b565b9050919050565b60006060820190506120f360008301866119e3565b61210060208301856119e3565b61210d6040830184611906565b949350505050565b7f496e76616c696420746f6b656e20706169720000000000000000000000000000600082015250565b600061214b601283611bd8565b915061215682612115565b602082019050919050565b6000602082019050818103600083015261217a8161213e565b9050919050565b7f4d7573742070726f7669646520626f74682045544820616e6420746f6b656e73600082015250565b60006121b7602083611bd8565b91506121c282612181565b602082019050919050565b600060208201905081810360008301526121e6816121aa565b9050919050565b60006060820190506122026000830186611906565b61220f6020830185611906565b61221c60408301846119e3565b949350505050565b600060408201905061223960008301856119e3565b61224660208301846119e3565b9392505050565b7f46656520746f6f20686967680000000000000000000000000000000000000000600082015250565b6000612283600c83611bd8565b915061228e8261224d565b602082019050919050565b600060208201905081810360008301526122b281612276565b9050919050565b7f496e73756666696369656e742045544820726573657276657300000000000000600082015250565b60006122ef601983611bd8565b91506122fa826122b9565b602082019050919050565b6000602082019050818103600083015261231e816122e2565b9050919050565b600081905092915050565b50565b6000612340600083612325565b915061234b82612330565b600082019050919050565b600061236182612333565b9150819050919050565b7f455448207472616e73666572206661696c656400000000000000000000000000600082015250565b60006123a1601383611bd8565b91506123ac8261236b565b602082019050919050565b600060208201905081810360008301526123d081612394565b9050919050565b7f4d7573742070726f7669646520746f6b656e7300000000000000000000000000600082015250565b600061240d601383611bd8565b9150612418826123d7565b602082019050919050565b6000602082019050818103600083015261243c81612400565b905091905056fea26469706673582212207b0d9efaf6d19661078c48eab1a2d84a0f80239edf5f141c2d829c1a6f25b52464736f6c634300081b0033",
  "linkReferences": {},
  "deployedLinkReferences": {}
}