{
  "_format": "hh-sol-artifact-1",
  "contractName": "BetContract",
  "sourceName": "contracts/BetContract.sol",
  "abi": [
    {
      "inputs": [
        {
          "internalType": "uint256",
          "name": "_betRate",
          "type": "uint256"
        },
        {
          "internalType": "address",
          "name": "_token",
          "type": "address"
        },
        {
          "internalType": "address",
          "name": "_rateContract",
          "type": "address"
        },
        {
          "internalType": "uint256",
          "name": "_deadline",
          "type": "uint256"
        }
      ],
      "stateMutability": "payable",
      "type": "constructor"
    },
    {
      "anonymous": false,
      "inputs": [
        {
          "indexed": true,
          "internalType": "address",
          "name": "owner",
          "type": "address"
        },
        {
          "indexed": false,
          "internalType": "uint256",
          "name": "amount",
          "type": "uint256"
        }
      ],
      "name": "BetClosed",
      "type": "event"
    },
    {
      "anonymous": false,
      "inputs": [
        {
          "indexed": true,
          "internalType": "address",
          "name": "player",
          "type": "address"
        },
        {
          "indexed": false,
          "internalType": "uint256",
          "name": "amount",
          "type": "uint256"
        }
      ],
      "name": "BetPlaced",
      "type": "event"
    },
    {
      "anonymous": false,
      "inputs": [
        {
          "indexed": true,
          "internalType": "address",
          "name": "player",
          "type": "address"
        },
        {
          "indexed": false,
          "internalType": "uint256",
          "name": "amount",
          "type": "uint256"
        }
      ],
      "name": "BetWon",
      "type": "event"
    },
    {
      "anonymous": false,
      "inputs": [
        {
          "indexed": true,
          "internalType": "address",
          "name": "owner",
          "type": "address"
        },
        {
          "indexed": false,
          "internalType": "uint256",
          "name": "initialPot",
          "type": "uint256"
        },
        {
          "indexed": false,
          "internalType": "uint256",
          "name": "betRate",
          "type": "uint256"
        },
        {
          "indexed": false,
          "internalType": "uint256",
          "name": "deadline",
          "type": "uint256"
        }
      ],
      "name": "ContractInitialized",
      "type": "event"
    },
    {
      "inputs": [],
      "name": "betRate",
      "outputs": [
        {
          "internalType": "uint256",
          "name": "",
          "type": "uint256"
        }
      ],
      "stateMutability": "view",
      "type": "function"
    },
    {
      "inputs": [],
      "name": "betWallet",
      "outputs": [
        {
          "internalType": "uint256",
          "name": "",
          "type": "uint256"
        }
      ],
      "stateMutability": "view",
      "type": "function"
    },
    {
      "inputs": [],
      "name": "claimWin",
      "outputs": [],
      "stateMutability": "nonpayable",
      "type": "function"
    },
    {
      "inputs": [],
      "name": "closeBet",
      "outputs": [],
      "stateMutability": "nonpayable",
      "type": "function"
    },
    {
      "inputs": [],
      "name": "currentPlayer",
      "outputs": [
        {
          "internalType": "address",
          "name": "",
          "type": "address"
        }
      ],
      "stateMutability": "view",
      "type": "function"
    },
    {
      "inputs": [],
      "name": "deadline",
      "outputs": [
        {
          "internalType": "uint256",
          "name": "",
          "type": "uint256"
        }
      ],
      "stateMutability": "view",
      "type": "function"
    },
    {
      "inputs": [],
      "name": "getState",
      "outputs": [
        {
          "internalType": "address",
          "name": "_owner",
          "type": "address"
        },
        {
          "internalType": "address",
          "name": "_currentPlayer",
          "type": "address"
        },
        {
          "internalType": "uint256",
          "name": "_betWallet",
          "type": "uint256"
        },
        {
          "internalType": "uint256",
          "name": "_betRate",
          "type": "uint256"
        },
        {
          "internalType": "uint256",
          "name": "_deadline",
          "type": "uint256"
        },
        {
          "internalType": "uint256",
          "name": "_currentRate",
          "type": "uint256"
        },
        {
          "internalType": "bool",
          "name": "_betActive",
          "type": "bool"
        }
      ],
      "stateMutability": "view",
      "type": "function"
    },
    {
      "inputs": [],
      "name": "initialPot",
      "outputs": [
        {
          "internalType": "uint256",
          "name": "",
          "type": "uint256"
        }
      ],
      "stateMutability": "view",
      "type": "function"
    },
    {
      "inputs": [],
      "name": "owner",
      "outputs": [
        {
          "internalType": "address",
          "name": "",
          "type": "address"
        }
      ],
      "stateMutability": "view",
      "type": "function"
    },
    {
      "inputs": [],
      "name": "placeBet",
      "outputs": [],
      "stateMutability": "payable",
      "type": "function"
    },
    {
      "inputs": [],
      "name": "playerBet",
      "outputs": [
        {
          "internalType": "uint256",
          "name": "",
          "type": "uint256"
        }
      ],
      "stateMutability": "view",
      "type": "function"
    },
    {
      "inputs": [],
      "name": "rateContract",
      "outputs": [
        {
          "internalType": "address",
          "name": "",
          "type": "address"
        }
      ],
      "stateMutability": "view",
      "type": "function"
    },
    {
      "inputs": [],
      "name": "token",
      "outputs": [
        {
          "internalType": "address",
          "name": "",
          "type": "address"
        }
      ],
      "stateMutability": "view",
      "type": "function"
    }
  ],
  "bytecode": "0x6080604052604051611a9b380380611a9b833981810160405281019061002591906103c9565b60003411610068576040517f08c379a000000000000000000000000000000000000000000000000000000000815260040161005f9061048d565b60405180910390fd5b4281116100aa576040517f08c379a00000000000000000000000000000000000000000000000000000000081526004016100a1906104f9565b60405180910390fd5b600073ffffffffffffffffffffffffffffffffffffffff168273ffffffffffffffffffffffffffffffffffffffff1603610119576040517f08c379a00000000000000000000000000000000000000000000000000000000081526004016101109061058b565b60405180910390fd5b8173ffffffffffffffffffffffffffffffffffffffff16631953864b6000856040518363ffffffff1660e01b81526004016101559291906105ba565b602060405180830381865afa158015610172573d6000803e3d6000fd5b505050506040513d601f19601f82011682018060405250810190610196919061061b565b6101d5576040517f08c379a00000000000000000000000000000000000000000000000000000000081526004016101cc906106ba565b60405180910390fd5b336000806101000a81548173ffffffffffffffffffffffffffffffffffffffff021916908373ffffffffffffffffffffffffffffffffffffffff16021790555034600581905550346006819055508360038190555082600260006101000a81548173ffffffffffffffffffffffffffffffffffffffff021916908373ffffffffffffffffffffffffffffffffffffffff16021790555081600160006101000a81548173ffffffffffffffffffffffffffffffffffffffff021916908373ffffffffffffffffffffffffffffffffffffffff1602179055508060048190555060008054906101000a900473ffffffffffffffffffffffffffffffffffffffff1673ffffffffffffffffffffffffffffffffffffffff167f017b4ae07fd1f6af130b3591d7030755a4d2b1151496f6cd4ea91a190fbd331a600654868460405161031f939291906106e9565b60405180910390a250505050610720565b600080fd5b6000819050919050565b61034881610335565b811461035357600080fd5b50565b6000815190506103658161033f565b92915050565b600073ffffffffffffffffffffffffffffffffffffffff82169050919050565b60006103968261036b565b9050919050565b6103a68161038b565b81146103b157600080fd5b50565b6000815190506103c38161039d565b92915050565b600080600080608085870312156103e3576103e2610330565b5b60006103f187828801610356565b9450506020610402878288016103b4565b9350506040610413878288016103b4565b925050606061042487828801610356565b91505092959194509250565b600082825260208201905092915050565b7f4d7573742073656e6420696e697469616c20706f7420616d6f756e7420000000600082015250565b6000610477601d83610430565b915061048282610441565b602082019050919050565b600060208201905081810360008301526104a68161046a565b9050919050565b7f446561646c696e65206d75737420626520696e20746865206675747572650000600082015250565b60006104e3601e83610430565b91506104ee826104ad565b602082019050919050565b60006020820190508181036000830152610512816104d6565b9050919050565b7f5261746520636f6e747261637420616464726573732063616e6e6f742062652060008201527f7a65726f00000000000000000000000000000000000000000000000000000000602082015250565b6000610575602483610430565b915061058082610519565b604082019050919050565b600060208201905081810360008301526105a481610568565b9050919050565b6105b48161038b565b82525050565b60006040820190506105cf60008301856105ab565b6105dc60208301846105ab565b9392505050565b60008115159050919050565b6105f8816105e3565b811461060357600080fd5b50565b600081519050610615816105ef565b92915050565b60006020828403121561063157610630610330565b5b600061063f84828501610606565b91505092915050565b7f5261746520636f6e747261637420646f6573206e6f7420737570706f7274204560008201527f54482f746f6b656e2065786368616e6765000000000000000000000000000000602082015250565b60006106a4603183610430565b91506106af82610648565b604082019050919050565b600060208201905081810360008301526106d381610697565b9050919050565b6106e381610335565b82525050565b60006060820190506106fe60008301866106da565b61070b60208301856106da565b61071860408301846106da565b949350505050565b61136c8061072f6000396000f3fe6080604052600436106100c25760003560e01c8063d3a064a41161007f578063f8294cac11610059578063f8294cac14610228578063f90f456014610253578063fa86eb6e1461025d578063fc0c546a14610288576100c2565b8063d3a064a4146101bb578063eaa968cc146101e6578063eee24219146101fd576100c2565b80631865c57d146100c757806329dcb0cf146100f85780634404a438146101235780636ac465411461014e5780638da5cb5b14610179578063b5ffd817146101a4575b600080fd5b3480156100d357600080fd5b506100dc6102b3565b6040516100ef9796959493929190610d7e565b60405180910390f35b34801561010457600080fd5b5061010d610496565b60405161011a9190610ded565b60405180910390f35b34801561012f57600080fd5b5061013861049c565b6040516101459190610e08565b60405180910390f35b34801561015a57600080fd5b506101636104c2565b6040516101709190610ded565b60405180910390f35b34801561018557600080fd5b5061018e6104c8565b60405161019b9190610e08565b60405180910390f35b3480156101b057600080fd5b506101b96104ec565b005b3480156101c757600080fd5b506101d06107e8565b6040516101dd9190610ded565b60405180910390f35b3480156101f257600080fd5b506101fb6107ee565b005b34801561020957600080fd5b50610212610a59565b60405161021f9190610e08565b60405180910390f35b34801561023457600080fd5b5061023d610a7f565b60405161024a9190610ded565b60405180910390f35b61025b610a85565b005b34801561026957600080fd5b50610272610cdd565b60405161027f9190610ded565b60405180910390f35b34801561029457600080fd5b5061029d610ce3565b6040516102aa9190610e08565b60405180910390f35b60008060008060008060008060009050600073ffffffffffffffffffffffffffffffffffffffff16600160009054906101000a900473ffffffffffffffffffffffffffffffffffffffff1673ffffffffffffffffffffffffffffffffffffffff16146103dd57600160009054906101000a900473ffffffffffffffffffffffffffffffffffffffff1673ffffffffffffffffffffffffffffffffffffffff1663379b87ea6000600260009054906101000a900473ffffffffffffffffffffffffffffffffffffffff166040518363ffffffff1660e01b8152600401610399929190610e23565b602060405180830381865afa1580156103b6573d6000803e3d6000fd5b505050506040513d601f19601f820116820180604052508101906103da9190610e7d565b90505b60008054906101000a900473ffffffffffffffffffffffffffffffffffffffff16600760009054906101000a900473ffffffffffffffffffffffffffffffffffffffff1660055460035460045485600073ffffffffffffffffffffffffffffffffffffffff16600760009054906101000a900473ffffffffffffffffffffffffffffffffffffffff1673ffffffffffffffffffffffffffffffffffffffff16141597509750975097509750975097505090919293949596565b60045481565b600760009054906101000a900473ffffffffffffffffffffffffffffffffffffffff1681565b60035481565b60008054906101000a900473ffffffffffffffffffffffffffffffffffffffff1681565b6004544210610530576040517f08c379a000000000000000000000000000000000000000000000000000000000815260040161052790610f07565b60405180910390fd5b600760009054906101000a900473ffffffffffffffffffffffffffffffffffffffff1673ffffffffffffffffffffffffffffffffffffffff163373ffffffffffffffffffffffffffffffffffffffff16146105c0576040517f08c379a00000000000000000000000000000000000000000000000000000000081526004016105b790610f99565b60405180910390fd5b6000600160009054906101000a900473ffffffffffffffffffffffffffffffffffffffff1673ffffffffffffffffffffffffffffffffffffffff1663379b87ea6000600260009054906101000a900473ffffffffffffffffffffffffffffffffffffffff166040518363ffffffff1660e01b8152600401610642929190610e23565b602060405180830381865afa15801561065f573d6000803e3d6000fd5b505050506040513d601f19601f820116820180604052508101906106839190610e7d565b90506003548111156107e5576000600554905060006005819055506000600760006101000a81548173ffffffffffffffffffffffffffffffffffffffff021916908373ffffffffffffffffffffffffffffffffffffffff160217905550600060088190555060003373ffffffffffffffffffffffffffffffffffffffff168260405161070e90610fea565b60006040518083038185875af1925050503d806000811461074b576040519150601f19603f3d011682016040523d82523d6000602084013e610750565b606091505b5050905080610794576040517f08c379a000000000000000000000000000000000000000000000000000000000815260040161078b9061104b565b60405180910390fd5b3373ffffffffffffffffffffffffffffffffffffffff167ffe23c6d15fc15e80d0d3b6b59122e78175084270ba5370c378f9e20e4ee31e06836040516107da9190610ded565b60405180910390a250505b50565b60055481565b600454421015610833576040517f08c379a000000000000000000000000000000000000000000000000000000000815260040161082a906110b7565b60405180910390fd5b60008054906101000a900473ffffffffffffffffffffffffffffffffffffffff1673ffffffffffffffffffffffffffffffffffffffff163373ffffffffffffffffffffffffffffffffffffffff16146108c1576040517f08c379a00000000000000000000000000000000000000000000000000000000081526004016108b890611149565b60405180910390fd5b6000600554905060006005819055506000600760006101000a81548173ffffffffffffffffffffffffffffffffffffffff021916908373ffffffffffffffffffffffffffffffffffffffff160217905550600060088190555060008060009054906101000a900473ffffffffffffffffffffffffffffffffffffffff1673ffffffffffffffffffffffffffffffffffffffff168260405161096190610fea565b60006040518083038185875af1925050503d806000811461099e576040519150601f19603f3d011682016040523d82523d6000602084013e6109a3565b606091505b50509050806109e7576040517f08c379a00000000000000000000000000000000000000000000000000000000081526004016109de9061104b565b60405180910390fd5b60008054906101000a900473ffffffffffffffffffffffffffffffffffffffff1673ffffffffffffffffffffffffffffffffffffffff167fc6cff17b495e5e0115993e59f45d23656041d26e398b1b96b987648c1d770d2283604051610a4d9190610ded565b60405180910390a25050565b600160009054906101000a900473ffffffffffffffffffffffffffffffffffffffff1681565b60065481565b6004544210610ac9576040517f08c379a0000000000000000000000000000000000000000000000000000000008152600401610ac090610f07565b60405180910390fd5b600073ffffffffffffffffffffffffffffffffffffffff16600760009054906101000a900473ffffffffffffffffffffffffffffffffffffffff1673ffffffffffffffffffffffffffffffffffffffff1614610b5a576040517f08c379a0000000000000000000000000000000000000000000000000000000008152600401610b51906111b5565b60405180910390fd5b6005543414610b9e576040517f08c379a0000000000000000000000000000000000000000000000000000000008152600401610b9590611247565b60405180910390fd5b60008054906101000a900473ffffffffffffffffffffffffffffffffffffffff1673ffffffffffffffffffffffffffffffffffffffff163373ffffffffffffffffffffffffffffffffffffffff1603610c2c576040517f08c379a0000000000000000000000000000000000000000000000000000000008152600401610c23906112b3565b60405180910390fd5b33600760006101000a81548173ffffffffffffffffffffffffffffffffffffffff021916908373ffffffffffffffffffffffffffffffffffffffff160217905550346008819055503460056000828254610c869190611302565b925050819055503373ffffffffffffffffffffffffffffffffffffffff167f43e08d78302cdf9c94e1ffd293c2a3696139ee41cf3199b6f5eed9c7f6cc609034604051610cd39190610ded565b60405180910390a2565b60085481565b600260009054906101000a900473ffffffffffffffffffffffffffffffffffffffff1681565b600073ffffffffffffffffffffffffffffffffffffffff82169050919050565b6000610d3482610d09565b9050919050565b610d4481610d29565b82525050565b6000819050919050565b610d5d81610d4a565b82525050565b60008115159050919050565b610d7881610d63565b82525050565b600060e082019050610d93600083018a610d3b565b610da06020830189610d3b565b610dad6040830188610d54565b610dba6060830187610d54565b610dc76080830186610d54565b610dd460a0830185610d54565b610de160c0830184610d6f565b98975050505050505050565b6000602082019050610e026000830184610d54565b92915050565b6000602082019050610e1d6000830184610d3b565b92915050565b6000604082019050610e386000830185610d3b565b610e456020830184610d3b565b9392505050565b600080fd5b610e5a81610d4a565b8114610e6557600080fd5b50565b600081519050610e7781610e51565b92915050565b600060208284031215610e9357610e92610e4c565b5b6000610ea184828501610e68565b91505092915050565b600082825260208201905092915050565b7f446561646c696e65206861732070617373656400000000000000000000000000600082015250565b6000610ef1601383610eaa565b9150610efc82610ebb565b602082019050919050565b60006020820190508181036000830152610f2081610ee4565b9050919050565b7f4f6e6c792063757272656e7420706c617965722063616e2063616c6c2074686960008201527f7300000000000000000000000000000000000000000000000000000000000000602082015250565b6000610f83602183610eaa565b9150610f8e82610f27565b604082019050919050565b60006020820190508181036000830152610fb281610f76565b9050919050565b600081905092915050565b50565b6000610fd4600083610fb9565b9150610fdf82610fc4565b600082019050919050565b6000610ff582610fc7565b9150819050919050565b7f5472616e73666572206661696c65640000000000000000000000000000000000600082015250565b6000611035600f83610eaa565b915061104082610fff565b602082019050919050565b6000602082019050818103600083015261106481611028565b9050919050565b7f446561646c696e6520686173206e6f7420706173736564207965740000000000600082015250565b60006110a1601b83610eaa565b91506110ac8261106b565b602082019050919050565b600060208201905081810360008301526110d081611094565b9050919050565b7f4f6e6c79206f776e65722063616e2063616c6c20746869732066756e6374696f60008201527f6e00000000000000000000000000000000000000000000000000000000000000602082015250565b6000611133602183610eaa565b915061113e826110d7565b604082019050919050565b6000602082019050818103600083015261116281611126565b9050919050565b7f412062657420697320616c726561647920616374697665000000000000000000600082015250565b600061119f601783610eaa565b91506111aa82611169565b602082019050919050565b600060208201905081810360008301526111ce81611192565b9050919050565b7f42657420616d6f756e74206d75737420657175616c2063757272656e7420626560008201527f742077616c6c6574000000000000000000000000000000000000000000000000602082015250565b6000611231602883610eaa565b915061123c826111d5565b604082019050919050565b6000602082019050818103600083015261126081611224565b9050919050565b7f4f776e65722063616e6e6f7420706c6163652062657473000000000000000000600082015250565b600061129d601783610eaa565b91506112a882611267565b602082019050919050565b600060208201905081810360008301526112cc81611290565b9050919050565b7f4e487b7100000000000000000000000000000000000000000000000000000000600052601160045260246000fd5b600061130d82610d4a565b915061131883610d4a565b92508282019050808211156113305761132f6112d3565b5b9291505056fea26469706673582212204781df671f590f405dd4a82e6326ab40903559da5f1adb0329d4fa3aca5e6c4664736f6c634300081b0033",
  "linkReferences": {},
  "deployedLinkReferences": {}
}