{
  "_format": "hh-sol-artifact-1",
  "contractName": "AMM",
  "sourceName": "contracts/AMM.sol",
  "abi": [
    {
      "inputs": [
        {
          "internalType": "address",
          "name": "_tokenB",
          "type": "address"
        }
      ],
      "stateMutability": "nonpayable",
      "type": "constructor"
    },
    {
      "inputs": [],
      "name": "ReentrancyGuardReentrantCall",
      "type": "error"
    },
    {
      "anonymous": false,
      "inputs": [
        {
          "indexed": true,
          "internalType": "address",
          "name": "provider",
          "type": "address"
        },
        {
          "indexed": false,
          "internalType": "uint256",
          "name": "amountA",
          "type": "uint256"
        },
        {
          "indexed": false,
          "internalType": "uint256",
          "name": "amountB",
          "type": "uint256"
        },
        {
          "indexed": false,
          "internalType": "uint256",
          "name": "liquidity",
          "type": "uint256"
        }
      ],
      "name": "LiquidityAdded",
      "type": "event"
    },
    {
      "anonymous": false,
      "inputs": [
        {
          "indexed": false,
          "internalType": "uint256",
          "name": "newRate",
          "type": "uint256"
        }
      ],
      "name": "RateUpdated",
      "type": "event"
    },
    {
      "anonymous": false,
      "inputs": [
        {
          "indexed": true,
          "internalType": "address",
          "name": "user",
          "type": "address"
        },
        {
          "indexed": false,
          "internalType": "uint256",
          "name": "amountIn",
          "type": "uint256"
        },
        {
          "indexed": false,
          "internalType": "uint256",
          "name": "amountOut",
          "type": "uint256"
        },
        {
          "indexed": false,
          "internalType": "bool",
          "name": "aToB",
          "type": "bool"
        }
      ],
      "name": "Swap",
      "type": "event"
    },
    {
      "inputs": [
        {
          "internalType": "uint256",
          "name": "tokenAmount",
          "type": "uint256"
        }
      ],
      "name": "addInitialLiquidity",
      "outputs": [],
      "stateMutability": "payable",
      "type": "function"
    },
    {
      "inputs": [
        {
          "internalType": "uint256",
          "name": "tokenAmount",
          "type": "uint256"
        }
      ],
      "name": "addLiquidity",
      "outputs": [],
      "stateMutability": "payable",
      "type": "function"
    },
    {
      "inputs": [
        {
          "internalType": "uint256",
          "name": "amountIn",
          "type": "uint256"
        },
        {
          "internalType": "uint256",
          "name": "reserveIn",
          "type": "uint256"
        },
        {
          "internalType": "uint256",
          "name": "reserveOut",
          "type": "uint256"
        }
      ],
      "name": "getAmountOut",
      "outputs": [
        {
          "internalType": "uint256",
          "name": "amountOut",
          "type": "uint256"
        }
      ],
      "stateMutability": "pure",
      "type": "function"
    },
    {
      "inputs": [
        {
          "internalType": "address",
          "name": "_tokenA",
          "type": "address"
        },
        {
          "internalType": "address",
          "name": "_tokenB",
          "type": "address"
        }
      ],
      "name": "getRate",
      "outputs": [
        {
          "internalType": "uint256",
          "name": "rate",
          "type": "uint256"
        }
      ],
      "stateMutability": "view",
      "type": "function"
    },
    {
      "inputs": [],
      "name": "getReserves",
      "outputs": [
        {
          "internalType": "uint256",
          "name": "_reserveA",
          "type": "uint256"
        },
        {
          "internalType": "uint256",
          "name": "_reserveB",
          "type": "uint256"
        }
      ],
      "stateMutability": "view",
      "type": "function"
    },
    {
      "inputs": [],
      "name": "getTokenPair",
      "outputs": [
        {
          "internalType": "address",
          "name": "_tokenA",
          "type": "address"
        },
        {
          "internalType": "address",
          "name": "_tokenB",
          "type": "address"
        }
      ],
      "stateMutability": "view",
      "type": "function"
    },
    {
      "inputs": [
        {
          "internalType": "address",
          "name": "",
          "type": "address"
        }
      ],
      "name": "liquidityBalances",
      "outputs": [
        {
          "internalType": "uint256",
          "name": "",
          "type": "uint256"
        }
      ],
      "stateMutability": "view",
      "type": "function"
    },
    {
      "inputs": [],
      "name": "reserveA",
      "outputs": [
        {
          "internalType": "uint256",
          "name": "",
          "type": "uint256"
        }
      ],
      "stateMutability": "view",
      "type": "function"
    },
    {
      "inputs": [],
      "name": "reserveB",
      "outputs": [
        {
          "internalType": "uint256",
          "name": "",
          "type": "uint256"
        }
      ],
      "stateMutability": "view",
      "type": "function"
    },
    {
      "inputs": [
        {
          "internalType": "address",
          "name": "_tokenA",
          "type": "address"
        },
        {
          "internalType": "address",
          "name": "_tokenB",
          "type": "address"
        }
      ],
      "name": "supportsExchange",
      "outputs": [
        {
          "internalType": "bool",
          "name": "supported",
          "type": "bool"
        }
      ],
      "stateMutability": "view",
      "type": "function"
    },
    {
      "inputs": [
        {
          "internalType": "uint256",
          "name": "minTokensOut",
          "type": "uint256"
        }
      ],
      "name": "swapETHForTokens",
      "outputs": [],
      "stateMutability": "payable",
      "type": "function"
    },
    {
      "inputs": [
        {
          "internalType": "uint256",
          "name": "tokenAmount",
          "type": "uint256"
        },
        {
          "internalType": "uint256",
          "name": "minETHOut",
          "type": "uint256"
        }
      ],
      "name": "swapTokensForETH",
      "outputs": [],
      "stateMutability": "nonpayable",
      "type": "function"
    },
    {
      "inputs": [],
      "name": "tokenA",
      "outputs": [
        {
          "internalType": "address",
          "name": "",
          "type": "address"
        }
      ],
      "stateMutability": "view",
      "type": "function"
    },
    {
      "inputs": [],
      "name": "tokenB",
      "outputs": [
        {
          "internalType": "address",
          "name": "",
          "type": "address"
        }
      ],
      "stateMutability": "view",
      "type": "function"
    },
    {
      "inputs": [],
      "name": "totalLiquidity",
      "outputs": [
        {
          "internalType": "uint256",
          "name": "",
          "type": "uint256"
        }
      ],
      "stateMutability": "view",
      "type": "function"
    },
    {
      "stateMutability": "payable",
      "type": "receive"
    }
  ],
  "bytecode": "0x608060405234801561001057600080fd5b5060405161262a38038061262a83398181016040528101906100329190610195565b6001600081905550600073ffffffffffffffffffffffffffffffffffffffff168173ffffffffffffffffffffffffffffffffffffffff16036100a9576040517f08c379a00000000000000000000000000000000000000000000000000000000081526004016100a09061021f565b60405180910390fd5b6000600160006101000a81548173ffffffffffffffffffffffffffffffffffffffff021916908373ffffffffffffffffffffffffffffffffffffffff16021790555080600260006101000a81548173ffffffffffffffffffffffffffffffffffffffff021916908373ffffffffffffffffffffffffffffffffffffffff1602179055505061023f565b600080fd5b600073ffffffffffffffffffffffffffffffffffffffff82169050919050565b600061016282610137565b9050919050565b61017281610157565b811461017d57600080fd5b50565b60008151905061018f81610169565b92915050565b6000602082840312156101ab576101aa610132565b5b60006101b984828501610180565b91505092915050565b600082825260208201905092915050565b7f546f6b656e20616464726573732063616e6e6f74206265207a65726f00000000600082015250565b6000610209601c836101c2565b9150610214826101d3565b602082019050919050565b60006020820190508181036000830152610238816101fc565b9050919050565b6123dc8061024e6000396000f3fe6080604052600436106100ec5760003560e01c80632eab28411161008a5780635f64b55b116100595780635f64b55b146102ed578063a22280a614610318578063cbbc94cf14610341578063dc5fa6c51461036d576100f3565b80632eab28411461025c578063379b87ea1461027857806341a22cc2146102b557806351c6590a146102d1576100f3565b806315770f92116100c657806315770f921461018c5780631953864b146101b757806319e36f3b146101f45780632c15665f1461021f576100f3565b8063054d50d4146100f85780630902f1ac146101355780630fc63d1014610161576100f3565b366100f357005b600080fd5b34801561010457600080fd5b5061011f600480360381019061011a91906117a2565b610398565b60405161012c9190611804565b60405180910390f35b34801561014157600080fd5b5061014a610482565b60405161015892919061181f565b60405180910390f35b34801561016d57600080fd5b50610176610493565b6040516101839190611889565b60405180910390f35b34801561019857600080fd5b506101a16104b9565b6040516101ae9190611804565b60405180910390f35b3480156101c357600080fd5b506101de60048036038101906101d991906118d0565b6104bf565b6040516101eb919061192b565b60405180910390f35b34801561020057600080fd5b506102096105e1565b6040516102169190611804565b60405180910390f35b34801561022b57600080fd5b5061024660048036038101906102419190611946565b6105e7565b6040516102539190611804565b60405180910390f35b61027660048036038101906102719190611973565b6105ff565b005b34801561028457600080fd5b5061029f600480360381019061029a91906118d0565b61091d565b6040516102ac9190611804565b60405180910390f35b6102cf60048036038101906102ca9190611973565b610b22565b005b6102eb60048036038101906102e69190611973565b610de2565b005b3480156102f957600080fd5b50610302611257565b60405161030f9190611889565b60405180910390f35b34801561032457600080fd5b5061033f600480360381019061033a91906119a0565b61127d565b005b34801561034d57600080fd5b5061035661164b565b6040516103649291906119e0565b60405180910390f35b34801561037957600080fd5b5061038261169c565b60405161038f9190611804565b60405180910390f35b60008084116103dc576040517f08c379a00000000000000000000000000000000000000000000000000000000081526004016103d390611a66565b60405180910390fd5b6000831180156103ec5750600082115b61042b576040517f08c379a000000000000000000000000000000000000000000000000000000000815260040161042290611ad2565b60405180910390fd5b60006103e58561043b9190611b21565b90506000838261044b9190611b21565b90506000826103e88761045e9190611b21565b6104689190611b63565b905080826104769190611bc6565b93505050509392505050565b600080600354600454915091509091565b600160009054906101000a900473ffffffffffffffffffffffffffffffffffffffff1681565b60055481565b60008073ffffffffffffffffffffffffffffffffffffffff168373ffffffffffffffffffffffffffffffffffffffff161480156105495750600260009054906101000a900473ffffffffffffffffffffffffffffffffffffffff1673ffffffffffffffffffffffffffffffffffffffff168273ffffffffffffffffffffffffffffffffffffffff16145b806105d95750600260009054906101000a900473ffffffffffffffffffffffffffffffffffffffff1673ffffffffffffffffffffffffffffffffffffffff168373ffffffffffffffffffffffffffffffffffffffff161480156105d85750600073ffffffffffffffffffffffffffffffffffffffff168273ffffffffffffffffffffffffffffffffffffffff16145b5b905092915050565b60045481565b60066020528060005260406000206000915090505481565b6106076116a2565b6000341161064a576040517f08c379a000000000000000000000000000000000000000000000000000000000815260040161064190611c43565b60405180910390fd5b60006005541161068f576040517f08c379a000000000000000000000000000000000000000000000000000000000815260040161068690611caf565b60405180910390fd5b60006106a034600354600454610398565b9050818110156106e5576040517f08c379a00000000000000000000000000000000000000000000000000000000081526004016106dc90611d1b565b60405180910390fd5b6004548110610729576040517f08c379a000000000000000000000000000000000000000000000000000000000815260040161072090611d87565b60405180910390fd5b346003600082825461073b9190611b63565b9250508190555080600460008282546107549190611da7565b92505081905550600260009054906101000a900473ffffffffffffffffffffffffffffffffffffffff1673ffffffffffffffffffffffffffffffffffffffff1663a9059cbb33836040518363ffffffff1660e01b81526004016107b8929190611ddb565b6020604051808303816000875af11580156107d7573d6000803e3d6000fd5b505050506040513d601f19601f820116820180604052508101906107fb9190611e30565b61083a576040517f08c379a000000000000000000000000000000000000000000000000000000000815260040161083190611ea9565b60405180910390fd5b3373ffffffffffffffffffffffffffffffffffffffff167fcc65e4d9060ece2ecf63011ac580550b04c8daeba63fac4dfe8669353cd888593483600160405161088593929190611ec9565b60405180910390a27fe65c987b2e4668e09ba867026921588005b2b2063607a1e7e7d91683c8f91b7b6108fc600160009054906101000a900473ffffffffffffffffffffffffffffffffffffffff16600260009054906101000a900473ffffffffffffffffffffffffffffffffffffffff1661091d565b6040516109099190611804565b60405180910390a15061091a6116e8565b50565b60008073ffffffffffffffffffffffffffffffffffffffff168373ffffffffffffffffffffffffffffffffffffffff161480156109a75750600260009054906101000a900473ffffffffffffffffffffffffffffffffffffffff1673ffffffffffffffffffffffffffffffffffffffff168273ffffffffffffffffffffffffffffffffffffffff16145b80610a375750600260009054906101000a900473ffffffffffffffffffffffffffffffffffffffff1673ffffffffffffffffffffffffffffffffffffffff168373ffffffffffffffffffffffffffffffffffffffff16148015610a365750600073ffffffffffffffffffffffffffffffffffffffff168273ffffffffffffffffffffffffffffffffffffffff16145b5b610a76576040517f08c379a0000000000000000000000000000000000000000000000000000000008152600401610a6d90611f4c565b60405180910390fd5b60006003541480610a8957506000600454145b15610a975760009050610b1c565b600073ffffffffffffffffffffffffffffffffffffffff168373ffffffffffffffffffffffffffffffffffffffff1603610af557600454670de0b6b3a7640000600354610ae49190611b21565b610aee9190611bc6565b9050610b1b565b600354670de0b6b3a7640000600454610b0e9190611b21565b610b189190611bc6565b90505b5b92915050565b600060055414610b67576040517f08c379a0000000000000000000000000000000000000000000000000000000008152600401610b5e90611fb8565b60405180910390fd5b600034118015610b775750600081115b610bb6576040517f08c379a0000000000000000000000000000000000000000000000000000000008152600401610bad90612024565b60405180910390fd5b600260009054906101000a900473ffffffffffffffffffffffffffffffffffffffff1673ffffffffffffffffffffffffffffffffffffffff166323b872dd3330846040518463ffffffff1660e01b8152600401610c1593929190612044565b6020604051808303816000875af1158015610c34573d6000803e3d6000fd5b505050506040513d601f19601f82011682018060405250810190610c589190611e30565b610c97576040517f08c379a0000000000000000000000000000000000000000000000000000000008152600401610c8e90611ea9565b60405180910390fd5b34600381905550806004819055506000610cbb8234610cb69190611b21565b6116f2565b90508060058190555080600660003373ffffffffffffffffffffffffffffffffffffffff1673ffffffffffffffffffffffffffffffffffffffff168152602001908152602001600020819055503373ffffffffffffffffffffffffffffffffffffffff167f64b83944e79c3ce8d4c297411de637c3e102d064677aac0c163976ebdcd6f50e348484604051610d529392919061207b565b60405180910390a27fe65c987b2e4668e09ba867026921588005b2b2063607a1e7e7d91683c8f91b7b610dc9600160009054906101000a900473ffffffffffffffffffffffffffffffffffffffff16600260009054906101000a900473ffffffffffffffffffffffffffffffffffffffff1661091d565b604051610dd69190611804565b60405180910390a15050565b610dea6116a2565b600060055411610e2f576040517f08c379a0000000000000000000000000000000000000000000000000000000008152600401610e26906120fe565b60405180910390fd5b600034118015610e3f5750600081115b610e7e576040517f08c379a0000000000000000000000000000000000000000000000000000000008152600401610e7590612024565b60405180910390fd5b600060035460045434610e919190611b21565b610e9b9190611bc6565b905080821015610ee0576040517f08c379a0000000000000000000000000000000000000000000000000000000008152600401610ed790612190565b60405180910390fd5b600260009054906101000a900473ffffffffffffffffffffffffffffffffffffffff1673ffffffffffffffffffffffffffffffffffffffff166323b872dd3330846040518463ffffffff1660e01b8152600401610f3f93929190612044565b6020604051808303816000875af1158015610f5e573d6000803e3d6000fd5b505050506040513d601f19601f82011682018060405250810190610f829190611e30565b610fc1576040517f08c379a0000000000000000000000000000000000000000000000000000000008152600401610fb890611ea9565b60405180910390fd5b600060035460055434610fd49190611b21565b610fde9190611bc6565b90503460036000828254610ff29190611b63565b92505081905550816004600082825461100b9190611b63565b9250508190555080600560008282546110249190611b63565b9250508190555080600660003373ffffffffffffffffffffffffffffffffffffffff1673ffffffffffffffffffffffffffffffffffffffff168152602001908152602001600020600082825461107a9190611b63565b925050819055508183111561117457600260009054906101000a900473ffffffffffffffffffffffffffffffffffffffff1673ffffffffffffffffffffffffffffffffffffffff1663a9059cbb3384866110d49190611da7565b6040518363ffffffff1660e01b81526004016110f1929190611ddb565b6020604051808303816000875af1158015611110573d6000803e3d6000fd5b505050506040513d601f19601f820116820180604052508101906111349190611e30565b611173576040517f08c379a000000000000000000000000000000000000000000000000000000000815260040161116a906121fc565b60405180910390fd5b5b3373ffffffffffffffffffffffffffffffffffffffff167f64b83944e79c3ce8d4c297411de637c3e102d064677aac0c163976ebdcd6f50e3484846040516111be9392919061207b565b60405180910390a27fe65c987b2e4668e09ba867026921588005b2b2063607a1e7e7d91683c8f91b7b611235600160009054906101000a900473ffffffffffffffffffffffffffffffffffffffff16600260009054906101000a900473ffffffffffffffffffffffffffffffffffffffff1661091d565b6040516112429190611804565b60405180910390a150506112546116e8565b50565b600260009054906101000a900473ffffffffffffffffffffffffffffffffffffffff1681565b6112856116a2565b600082116112c8576040517f08c379a00000000000000000000000000000000000000000000000000000000081526004016112bf90612268565b60405180910390fd5b60006005541161130d576040517f08c379a000000000000000000000000000000000000000000000000000000000815260040161130490611caf565b60405180910390fd5b600061131e83600454600354610398565b905081811015611363576040517f08c379a000000000000000000000000000000000000000000000000000000000815260040161135a90611d1b565b60405180910390fd5b60035481106113a7576040517f08c379a000000000000000000000000000000000000000000000000000000000815260040161139e906122d4565b60405180910390fd5b600260009054906101000a900473ffffffffffffffffffffffffffffffffffffffff1673ffffffffffffffffffffffffffffffffffffffff166323b872dd3330866040518463ffffffff1660e01b815260040161140693929190612044565b6020604051808303816000875af1158015611425573d6000803e3d6000fd5b505050506040513d601f19601f820116820180604052508101906114499190611e30565b611488576040517f08c379a000000000000000000000000000000000000000000000000000000000815260040161147f90611ea9565b60405180910390fd5b826004600082825461149a9190611b63565b9250508190555080600360008282546114b39190611da7565b9250508190555060003373ffffffffffffffffffffffffffffffffffffffff16826040516114e090612325565b60006040518083038185875af1925050503d806000811461151d576040519150601f19603f3d011682016040523d82523d6000602084013e611522565b606091505b5050905080611566576040517f08c379a000000000000000000000000000000000000000000000000000000000815260040161155d90612386565b60405180910390fd5b3373ffffffffffffffffffffffffffffffffffffffff167fcc65e4d9060ece2ecf63011ac580550b04c8daeba63fac4dfe8669353cd88859858460006040516115b193929190611ec9565b60405180910390a27fe65c987b2e4668e09ba867026921588005b2b2063607a1e7e7d91683c8f91b7b611628600160009054906101000a900473ffffffffffffffffffffffffffffffffffffffff16600260009054906101000a900473ffffffffffffffffffffffffffffffffffffffff1661091d565b6040516116359190611804565b60405180910390a150506116476116e8565b5050565b600080600160009054906101000a900473ffffffffffffffffffffffffffffffffffffffff16600260009054906101000a900473ffffffffffffffffffffffffffffffffffffffff16915091509091565b60035481565b6002600054036116de576040517f3ee5aeb500000000000000000000000000000000000000000000000000000000815260040160405180910390fd5b6002600081905550565b6001600081905550565b60008082036117045760009050611762565b600060026001846117159190611b63565b61171f9190611bc6565b905060008390505b8082101561175c5781905060028283866117419190611bc6565b61174b9190611b63565b6117559190611bc6565b9150611727565b80925050505b919050565b600080fd5b6000819050919050565b61177f8161176c565b811461178a57600080fd5b50565b60008135905061179c81611776565b92915050565b6000806000606084860312156117bb576117ba611767565b5b60006117c98682870161178d565b93505060206117da8682870161178d565b92505060406117eb8682870161178d565b9150509250925092565b6117fe8161176c565b82525050565b600060208201905061181960008301846117f5565b92915050565b600060408201905061183460008301856117f5565b61184160208301846117f5565b9392505050565b600073ffffffffffffffffffffffffffffffffffffffff82169050919050565b600061187382611848565b9050919050565b61188381611868565b82525050565b600060208201905061189e600083018461187a565b92915050565b6118ad81611868565b81146118b857600080fd5b50565b6000813590506118ca816118a4565b92915050565b600080604083850312156118e7576118e6611767565b5b60006118f5858286016118bb565b9250506020611906858286016118bb565b9150509250929050565b60008115159050919050565b61192581611910565b82525050565b6000602082019050611940600083018461191c565b92915050565b60006020828403121561195c5761195b611767565b5b600061196a848285016118bb565b91505092915050565b60006020828403121561198957611988611767565b5b60006119978482850161178d565b91505092915050565b600080604083850312156119b7576119b6611767565b5b60006119c58582860161178d565b92505060206119d68582860161178d565b9150509250929050565b60006040820190506119f5600083018561187a565b611a02602083018461187a565b9392505050565b600082825260208201905092915050565b7f496e73756666696369656e7420696e70757420616d6f756e7400000000000000600082015250565b6000611a50601983611a09565b9150611a5b82611a1a565b602082019050919050565b60006020820190508181036000830152611a7f81611a43565b9050919050565b7f496e73756666696369656e74206c697175696469747900000000000000000000600082015250565b6000611abc601683611a09565b9150611ac782611a86565b602082019050919050565b60006020820190508181036000830152611aeb81611aaf565b9050919050565b7f4e487b7100000000000000000000000000000000000000000000000000000000600052601160045260246000fd5b6000611b2c8261176c565b9150611b378361176c565b9250828202611b458161176c565b91508282048414831517611b5c57611b5b611af2565b5b5092915050565b6000611b6e8261176c565b9150611b798361176c565b9250828201905080821115611b9157611b90611af2565b5b92915050565b7f4e487b7100000000000000000000000000000000000000000000000000000000600052601260045260246000fd5b6000611bd18261176c565b9150611bdc8361176c565b925082611bec57611beb611b97565b5b828204905092915050565b7f4d7573742073656e642045544800000000000000000000000000000000000000600082015250565b6000611c2d600d83611a09565b9150611c3882611bf7565b602082019050919050565b60006020820190508181036000830152611c5c81611c20565b9050919050565b7f4e6f206c697175696469747920617661696c61626c6500000000000000000000600082015250565b6000611c99601683611a09565b9150611ca482611c63565b602082019050919050565b60006020820190508181036000830152611cc881611c8c565b9050919050565b7f496e73756666696369656e74206f757470757420616d6f756e74000000000000600082015250565b6000611d05601a83611a09565b9150611d1082611ccf565b602082019050919050565b60006020820190508181036000830152611d3481611cf8565b9050919050565b7f496e73756666696369656e7420746f6b656e206c697175696469747900000000600082015250565b6000611d71601c83611a09565b9150611d7c82611d3b565b602082019050919050565b60006020820190508181036000830152611da081611d64565b9050919050565b6000611db28261176c565b9150611dbd8361176c565b9250828203905081811115611dd557611dd4611af2565b5b92915050565b6000604082019050611df0600083018561187a565b611dfd60208301846117f5565b9392505050565b611e0d81611910565b8114611e1857600080fd5b50565b600081519050611e2a81611e04565b92915050565b600060208284031215611e4657611e45611767565b5b6000611e5484828501611e1b565b91505092915050565b7f546f6b656e207472616e73666572206661696c65640000000000000000000000600082015250565b6000611e93601583611a09565b9150611e9e82611e5d565b602082019050919050565b60006020820190508181036000830152611ec281611e86565b9050919050565b6000606082019050611ede60008301866117f5565b611eeb60208301856117f5565b611ef8604083018461191c565b949350505050565b7f496e76616c696420746f6b656e20706169720000000000000000000000000000600082015250565b6000611f36601283611a09565b9150611f4182611f00565b602082019050919050565b60006020820190508181036000830152611f6581611f29565b9050919050565b7f4c697175696469747920616c7265616479206578697374730000000000000000600082015250565b6000611fa2601883611a09565b9150611fad82611f6c565b602082019050919050565b60006020820190508181036000830152611fd181611f95565b9050919050565b7f4d7573742070726f7669646520626f74682045544820616e6420746f6b656e73600082015250565b600061200e602083611a09565b915061201982611fd8565b602082019050919050565b6000602082019050818103600083015261203d81612001565b9050919050565b6000606082019050612059600083018661187a565b612066602083018561187a565b61207360408301846117f5565b949350505050565b600060608201905061209060008301866117f5565b61209d60208301856117f5565b6120aa60408301846117f5565b949350505050565b7f4e6f20696e697469616c206c6971756964697479000000000000000000000000600082015250565b60006120e8601483611a09565b91506120f3826120b2565b602082019050919050565b60006020820190508181036000830152612117816120db565b9050919050565b7f496e73756666696369656e7420746f6b656e20616d6f756e7420666f7220726160008201527f74696f0000000000000000000000000000000000000000000000000000000000602082015250565b600061217a602383611a09565b91506121858261211e565b604082019050919050565b600060208201905081810360008301526121a98161216d565b9050919050565b7f546f6b656e20726566756e64206661696c656400000000000000000000000000600082015250565b60006121e6601383611a09565b91506121f1826121b0565b602082019050919050565b60006020820190508181036000830152612215816121d9565b9050919050565b7f4d7573742070726f7669646520746f6b656e7300000000000000000000000000600082015250565b6000612252601383611a09565b915061225d8261221c565b602082019050919050565b6000602082019050818103600083015261228181612245565b9050919050565b7f496e73756666696369656e7420455448206c6971756964697479000000000000600082015250565b60006122be601a83611a09565b91506122c982612288565b602082019050919050565b600060208201905081810360008301526122ed816122b1565b9050919050565b600081905092915050565b50565b600061230f6000836122f4565b915061231a826122ff565b600082019050919050565b600061233082612302565b9150819050919050565b7f455448207472616e73666572206661696c656400000000000000000000000000600082015250565b6000612370601383611a09565b915061237b8261233a565b602082019050919050565b6000602082019050818103600083015261239f81612363565b905091905056fea2646970667358221220a8599d3a934abdd80e7d2eadf980b3d83d486c5562da130ec29cacd9246a78da64736f6c634300081b0033",
  "linkReferences": {},
  "deployedLinkReferences": {}
}